:100000000C9434000C945D000C945D000C945D0025
:100010000C945D000C945D000C945D000C945D00EC
:100020000C945D000C945D000C945D000C945D00DC
:100030000C945D000C945D000C945D000C945D00CC
:100040000C945D000C945D000C945D000C945D00BC
:100050000C945D000C945D000C945D000C945D00AC
:100060000C945D000C945D0011241FBECFEFD8E00E
:10007000DEBFCDBF0E9440000C943E00F894FFCF3D
:1000800084B18D7F84B984B18E7F84B984B18B7F34
:1000900084B984B1877F84B984B18F7E84B987B1F4
:1000A000806487B983B18F7121F088B1806488B989
:0A00B000F9CF88B18F7B88B9F5CF36
:0400BA000C940000A2
:00000001FF
